{
  "_format": "hh-sol-artifact-1",
  "contractName": "MintOZ",
  "sourceName": "contracts/MintOZ.sol",
  "abi": [
    {
      "inputs": [
        {
          "internalType": "string",
          "name": "_name",
          "type": "string"
        },
        {
          "internalType": "string",
          "name": "_symbol",
          "type": "string"
        }
      ],
      "stateMutability": "nonpayable",
      "type": "constructor"
    },
    {
      "anonymous": false,
      "inputs": [
        {
          "indexed": true,
          "internalType": "address",
          "name": "owner",
          "type": "address"
        },
        {
          "indexed": true,
          "internalType": "address",
          "name": "approved",
          "type": "address"
        },
        {
          "indexed": true,
          "internalType": "uint256",
          "name": "tokenId",
          "type": "uint256"
        }
      ],
      "name": "Approval",
      "type": "event"
    },
    {
      "anonymous": false,
      "inputs": [
        {
          "indexed": true,
          "internalType": "address",
          "name": "owner",
          "type": "address"
        },
        {
          "indexed": true,
          "internalType": "address",
          "name": "operator",
          "type": "address"
        },
        {
          "indexed": false,
          "internalType": "bool",
          "name": "approved",
          "type": "bool"
        }
      ],
      "name": "ApprovalForAll",
      "type": "event"
    },
    {
      "anonymous": false,
      "inputs": [
        {
          "indexed": true,
          "internalType": "address",
          "name": "from",
          "type": "address"
        },
        {
          "indexed": true,
          "internalType": "address",
          "name": "to",
          "type": "address"
        },
        {
          "indexed": true,
          "internalType": "uint256",
          "name": "tokenId",
          "type": "uint256"
        }
      ],
      "name": "Transfer",
      "type": "event"
    },
    {
      "inputs": [
        {
          "internalType": "address",
          "name": "to",
          "type": "address"
        },
        {
          "internalType": "uint256",
          "name": "tokenId",
          "type": "uint256"
        }
      ],
      "name": "approve",
      "outputs": [],
      "stateMutability": "nonpayable",
      "type": "function"
    },
    {
      "inputs": [
        {
          "internalType": "address",
          "name": "owner",
          "type": "address"
        }
      ],
      "name": "balanceOf",
      "outputs": [
        {
          "internalType": "uint256",
          "name": "",
          "type": "uint256"
        }
      ],
      "stateMutability": "view",
      "type": "function"
    },
    {
      "inputs": [
        {
          "internalType": "uint256",
          "name": "tokenId",
          "type": "uint256"
        }
      ],
      "name": "getApproved",
      "outputs": [
        {
          "internalType": "address",
          "name": "",
          "type": "address"
        }
      ],
      "stateMutability": "view",
      "type": "function"
    },
    {
      "inputs": [
        {
          "internalType": "address",
          "name": "owner",
          "type": "address"
        },
        {
          "internalType": "address",
          "name": "operator",
          "type": "address"
        }
      ],
      "name": "isApprovedForAll",
      "outputs": [
        {
          "internalType": "bool",
          "name": "",
          "type": "bool"
        }
      ],
      "stateMutability": "view",
      "type": "function"
    },
    {
      "inputs": [
        {
          "internalType": "string",
          "name": "_tokenURI",
          "type": "string"
        }
      ],
      "name": "mint",
      "outputs": [
        {
          "internalType": "uint256",
          "name": "",
          "type": "uint256"
        }
      ],
      "stateMutability": "nonpayable",
      "type": "function"
    },
    {
      "inputs": [],
      "name": "name",
      "outputs": [
        {
          "internalType": "string",
          "name": "",
          "type": "string"
        }
      ],
      "stateMutability": "view",
      "type": "function"
    },
    {
      "inputs": [
        {
          "internalType": "uint256",
          "name": "tokenId",
          "type": "uint256"
        }
      ],
      "name": "ownerOf",
      "outputs": [
        {
          "internalType": "address",
          "name": "",
          "type": "address"
        }
      ],
      "stateMutability": "view",
      "type": "function"
    },
    {
      "inputs": [
        {
          "internalType": "address",
          "name": "from",
          "type": "address"
        },
        {
          "internalType": "address",
          "name": "to",
          "type": "address"
        },
        {
          "internalType": "uint256",
          "name": "tokenId",
          "type": "uint256"
        }
      ],
      "name": "safeTransferFrom",
      "outputs": [],
      "stateMutability": "nonpayable",
      "type": "function"
    },
    {
      "inputs": [
        {
          "internalType": "address",
          "name": "from",
          "type": "address"
        },
        {
          "internalType": "address",
          "name": "to",
          "type": "address"
        },
        {
          "internalType": "uint256",
          "name": "tokenId",
          "type": "uint256"
        },
        {
          "internalType": "bytes",
          "name": "data",
          "type": "bytes"
        }
      ],
      "name": "safeTransferFrom",
      "outputs": [],
      "stateMutability": "nonpayable",
      "type": "function"
    },
    {
      "inputs": [
        {
          "internalType": "address",
          "name": "operator",
          "type": "address"
        },
        {
          "internalType": "bool",
          "name": "approved",
          "type": "bool"
        }
      ],
      "name": "setApprovalForAll",
      "outputs": [],
      "stateMutability": "nonpayable",
      "type": "function"
    },
    {
      "inputs": [
        {
          "internalType": "bytes4",
          "name": "interfaceId",
          "type": "bytes4"
        }
      ],
      "name": "supportsInterface",
      "outputs": [
        {
          "internalType": "bool",
          "name": "",
          "type": "bool"
        }
      ],
      "stateMutability": "view",
      "type": "function"
    },
    {
      "inputs": [],
      "name": "symbol",
      "outputs": [
        {
          "internalType": "string",
          "name": "",
          "type": "string"
        }
      ],
      "stateMutability": "view",
      "type": "function"
    },
    {
      "inputs": [
        {
          "internalType": "uint256",
          "name": "index",
          "type": "uint256"
        }
      ],
      "name": "tokenByIndex",
      "outputs": [
        {
          "internalType": "uint256",
          "name": "",
          "type": "uint256"
        }
      ],
      "stateMutability": "view",
      "type": "function"
    },
    {
      "inputs": [
        {
          "internalType": "address",
          "name": "owner",
          "type": "address"
        },
        {
          "internalType": "uint256",
          "name": "index",
          "type": "uint256"
        }
      ],
      "name": "tokenOfOwnerByIndex",
      "outputs": [
        {
          "internalType": "uint256",
          "name": "",
          "type": "uint256"
        }
      ],
      "stateMutability": "view",
      "type": "function"
    },
    {
      "inputs": [
        {
          "internalType": "uint256",
          "name": "tokenId",
          "type": "uint256"
        }
      ],
      "name": "tokenURI",
      "outputs": [
        {
          "internalType": "string",
          "name": "",
          "type": "string"
        }
      ],
      "stateMutability": "view",
      "type": "function"
    },
    {
      "inputs": [],
      "name": "totalSupply",
      "outputs": [
        {
          "internalType": "uint256",
          "name": "",
          "type": "uint256"
        }
      ],
      "stateMutability": "view",
      "type": "function"
    },
    {
      "inputs": [
        {
          "internalType": "address",
          "name": "from",
          "type": "address"
        },
        {
          "internalType": "address",
          "name": "to",
          "type": "address"
        },
        {
          "internalType": "uint256",
          "name": "tokenId",
          "type": "uint256"
        }
      ],
      "name": "transferFrom",
      "outputs": [],
      "stateMutability": "nonpayable",
      "type": "function"
    }
  ],
  "bytecode": "0x60806040523480156200001157600080fd5b506040516200342c3803806200342c833981810160405281019062000037919062000197565b818181600090805190602001906200005192919062000075565b5080600190805190602001906200006a92919062000075565b50505050506200037a565b82805462000083906200029f565b90600052602060002090601f016020900481019282620000a75760008555620000f3565b82601f10620000c257805160ff1916838001178555620000f3565b82800160010185558215620000f3579182015b82811115620000f2578251825591602001919060010190620000d5565b5b50905062000102919062000106565b5090565b5b808211156200012157600081600090555060010162000107565b5090565b60006200013c620001368462000233565b6200020a565b9050828152602081018484840111156200015557600080fd5b6200016284828562000269565b509392505050565b600082601f8301126200017c57600080fd5b81516200018e84826020860162000125565b91505092915050565b60008060408385031215620001ab57600080fd5b600083015167ffffffffffffffff811115620001c657600080fd5b620001d4858286016200016a565b925050602083015167ffffffffffffffff811115620001f257600080fd5b62000200858286016200016a565b9150509250929050565b60006200021662000229565b9050620002248282620002d5565b919050565b6000604051905090565b600067ffffffffffffffff8211156200025157620002506200033a565b5b6200025c8262000369565b9050602081019050919050565b60005b83811015620002895780820151818401526020810190506200026c565b8381111562000299576000848401525b50505050565b60006002820490506001821680620002b857607f821691505b60208210811415620002cf57620002ce6200030b565b5b50919050565b620002e08262000369565b810181811067ffffffffffffffff821117156200030257620003016200033a565b5b80604052505050565b7f4e487b7100000000000000000000000000000000000000000000000000000000600052602260045260246000fd5b7f4e487b7100000000000000000000000000000000000000000000000000000000600052604160045260246000fd5b6000601f19601f8301169050919050565b6130a2806200038a6000396000f3fe608060405234801561001057600080fd5b506004361061010b5760003560e01c80634f6ccce7116100a2578063a22cb46511610071578063a22cb465146102de578063b88d4fde146102fa578063c87b56dd14610316578063d85d3d2714610346578063e985e9c5146103765761010b565b80634f6ccce7146102305780636352211e1461026057806370a082311461029057806395d89b41146102c05761010b565b806318160ddd116100de57806318160ddd146101aa57806323b872dd146101c85780632f745c59146101e457806342842e0e146102145761010b565b806301ffc9a71461011057806306fdde0314610140578063081812fc1461015e578063095ea7b31461018e575b600080fd5b61012a60048036038101906101259190612258565b6103a6565b6040516101379190612659565b60405180910390f35b6101486103b8565b6040516101559190612674565b60405180910390f35b610178600480360381019061017391906122eb565b61044a565b60405161018591906125f2565b60405180910390f35b6101a860048036038101906101a3919061221c565b610490565b005b6101b26105a8565b6040516101bf9190612856565b60405180910390f35b6101e260048036038101906101dd9190612116565b6105b5565b005b6101fe60048036038101906101f9919061221c565b610615565b60405161020b9190612856565b60405180910390f35b61022e60048036038101906102299190612116565b6106ba565b005b61024a600480360381019061024591906122eb565b6106da565b6040516102579190612856565b60405180910390f35b61027a600480360381019061027591906122eb565b610771565b60405161028791906125f2565b60405180910390f35b6102aa60048036038101906102a591906120b1565b610823565b6040516102b79190612856565b60405180910390f35b6102c86108db565b6040516102d59190612674565b60405180910390f35b6102f860048036038101906102f391906121e0565b61096d565b005b610314600480360381019061030f9190612165565b610983565b005b610330600480360381019061032b91906122eb565b6109e5565b60405161033d9190612674565b60405180910390f35b610360600480360381019061035b91906122aa565b6109f7565b60405161036d9190612856565b60405180910390f35b610390600480360381019061038b91906120da565b610a2d565b60405161039d9190612659565b60405180910390f35b60006103b182610ac1565b9050919050565b6060600080546103c790612aac565b80601f01602080910402602001604051908101604052809291908181526020018280546103f390612aac565b80156104405780601f1061041557610100808354040283529160200191610440565b820191906000526020600020905b81548152906001019060200180831161042357829003601f168201915b5050505050905090565b600061045582610b3b565b6004600083815260200190815260200160002060009054906101000a900473ffffffffffffffffffffffffffffffffffffffff169050919050565b600061049b82610771565b90508073ffffffffffffffffffffffffffffffffffffffff168373ffffffffffffffffffffffffffffffffffffffff16141561050c576040517f08c379a0000000000000000000000000000000000000000000000000000000008152600401610503906127f6565b60405180910390fd5b8073ffffffffffffffffffffffffffffffffffffffff1661052b610b86565b73ffffffffffffffffffffffffffffffffffffffff16148061055a575061055981610554610b86565b610a2d565b5b610599576040517f08c379a000000000000000000000000000000000000000000000000000000000815260040161059090612796565b60405180910390fd5b6105a38383610b8e565b505050565b6000600880549050905090565b6105c66105c0610b86565b82610c47565b610605576040517f08c379a00000000000000000000000000000000000000000000000000000000081526004016105fc90612836565b60405180910390fd5b610610838383610cdc565b505050565b600061062083610823565b8210610661576040517f08c379a000000000000000000000000000000000000000000000000000000000815260040161065890612696565b60405180910390fd5b600660008473ffffffffffffffffffffffffffffffffffffffff1673ffffffffffffffffffffffffffffffffffffffff168152602001908152602001600020600083815260200190815260200160002054905092915050565b6106d583838360405180602001604052806000815250610983565b505050565b60006106e46105a8565b8210610725576040517f08c379a000000000000000000000000000000000000000000000000000000000815260040161071c90612816565b60405180910390fd5b6008828154811061075f577f4e487b7100000000000000000000000000000000000000000000000000000000600052603260045260246000fd5b90600052602060002001549050919050565b6000806002600084815260200190815260200160002060009054906101000a900473ffffffffffffffffffffffffffffffffffffffff169050600073ffffffffffffffffffffffffffffffffffffffff168173ffffffffffffffffffffffffffffffffffffffff16141561081a576040517f08c379a0000000000000000000000000000000000000000000000000000000008152600401610811906127d6565b60405180910390fd5b80915050919050565b60008073ffffffffffffffffffffffffffffffffffffffff168273ffffffffffffffffffffffffffffffffffffffff161415610894576040517f08c379a000000000000000000000000000000000000000000000000000000000815260040161088b90612756565b60405180910390fd5b600360008373ffffffffffffffffffffffffffffffffffffffff1673ffffffffffffffffffffffffffffffffffffffff168152602001908152602001600020549050919050565b6060600180546108ea90612aac565b80601f016020809104026020016040519081016040528092919081815260200182805461091690612aac565b80156109635780601f1061093857610100808354040283529160200191610963565b820191906000526020600020905b81548152906001019060200180831161094657829003601f168201915b5050505050905090565b61097f610978610b86565b8383610f43565b5050565b61099461098e610b86565b83610c47565b6109d3576040517f08c379a00000000000000000000000000000000000000000000000000000000081526004016109ca90612836565b60405180910390fd5b6109df848484846110b0565b50505050565b60606109f08261110c565b9050919050565b600080610a04600b61121f565b9050610a10338261122d565b610a1a8184611407565b610a24600b61147b565b80915050919050565b6000600560008473ffffffffffffffffffffffffffffffffffffffff1673ffffffffffffffffffffffffffffffffffffffff16815260200190815260200160002060008373ffffffffffffffffffffffffffffffffffffffff1673ffffffffffffffffffffffffffffffffffffffff16815260200190815260200160002060009054906101000a900460ff16905092915050565b60007f780e9d63000000000000000000000000000000000000000000000000000000007bffffffffffffffffffffffffffffffffffffffffffffffffffffffff1916827bffffffffffffffffffffffffffffffffffffffffffffffffffffffff19161480610b345750610b3382611491565b5b9050919050565b610b4481611573565b610b83576040517f08c379a0000000000000000000000000000000000000000000000000000000008152600401610b7a906127d6565b60405180910390fd5b50565b600033905090565b816004600083815260200190815260200160002060006101000a81548173ffffffffffffffffffffffffffffffffffffffff021916908373ffffffffffffffffffffffffffffffffffffffff160217905550808273ffffffffffffffffffffffffffffffffffffffff16610c0183610771565b73ffffffffffffffffffffffffffffffffffffffff167f8c5be1e5ebec7d5bd14f71427d1e84f3dd0314c0f7b2291e5b200ac8c7c3b92560405160405180910390a45050565b600080610c5383610771565b90508073ffffffffffffffffffffffffffffffffffffffff168473ffffffffffffffffffffffffffffffffffffffff161480610c955750610c948185610a2d565b5b80610cd357508373ffffffffffffffffffffffffffffffffffffffff16610cbb8461044a565b73ffffffffffffffffffffffffffffffffffffffff16145b91505092915050565b8273ffffffffffffffffffffffffffffffffffffffff16610cfc82610771565b73ffffffffffffffffffffffffffffffffffffffff1614610d52576040517f08c379a0000000000000000000000000000000000000000000000000000000008152600401610d49906126d6565b60405180910390fd5b600073ffffffffffffffffffffffffffffffffffffffff168273ffffffffffffffffffffffffffffffffffffffff161415610dc2576040517f08c379a0000000000000000000000000000000000000000000000000000000008152600401610db990612716565b60405180910390fd5b610dcd8383836115df565b610dd8600082610b8e565b6001600360008573ffffffffffffffffffffffffffffffffffffffff1673ffffffffffffffffffffffffffffffffffffffff1681526020019081526020016000206000828254610e2891906129c2565b925050819055506001600360008473ffffffffffffffffffffffffffffffffffffffff1673ffffffffffffffffffffffffffffffffffffffff1681526020019081526020016000206000828254610e7f919061293b565b92505081905550816002600083815260200190815260200160002060006101000a81548173ffffffffffffffffffffffffffffffffffffffff021916908373ffffffffffffffffffffffffffffffffffffffff160217905550808273ffffffffffffffffffffffffffffffffffffffff168473ffffffffffffffffffffffffffffffffffffffff167fddf252ad1be2c89b69c2b068fc378daa952ba7f163c4a11628f55a4df523b3ef60405160405180910390a4610f3e8383836115ef565b505050565b8173ffffffffffffffffffffffffffffffffffffffff168373ffffffffffffffffffffffffffffffffffffffff161415610fb2576040517f08c379a0000000000000000000000000000000000000000000000000000000008152600401610fa990612736565b60405180910390fd5b80600560008573ffffffffffffffffffffffffffffffffffffffff1673ffffffffffffffffffffffffffffffffffffffff16815260200190815260200160002060008473ffffffffffffffffffffffffffffffffffffffff1673ffffffffffffffffffffffffffffffffffffffff16815260200190815260200160002060006101000a81548160ff0219169083151502179055508173ffffffffffffffffffffffffffffffffffffffff168373ffffffffffffffffffffffffffffffffffffffff167f17307eab39ab6107e8899845ad3d59bd9653f200f220920489ca2b5937696c31836040516110a39190612659565b60405180910390a3505050565b6110bb848484610cdc565b6110c7848484846115f4565b611106576040517f08c379a00000000000000000000000000000000000000000000000000000000081526004016110fd906126b6565b60405180910390fd5b50505050565b606061111782610b3b565b6000600a6000848152602001908152602001600020805461113790612aac565b80601f016020809104026020016040519081016040528092919081815260200182805461116390612aac565b80156111b05780601f10611185576101008083540402835291602001916111b0565b820191906000526020600020905b81548152906001019060200180831161119357829003601f168201915b5050505050905060006111c161178b565b90506000815114156111d757819250505061121a565b60008251111561120c5780826040516020016111f49291906125ce565b6040516020818303038152906040529250505061121a565b611215846117a2565b925050505b919050565b600081600001549050919050565b600073ffffffffffffffffffffffffffffffffffffffff168273ffffffffffffffffffffffffffffffffffffffff16141561129d576040517f08c379a0000000000000000000000000000000000000000000000000000000008152600401611294906127b6565b60405180910390fd5b6112a681611573565b156112e6576040517f08c379a00000000000000000000000000000000000000000000000000000000081526004016112dd906126f6565b60405180910390fd5b6112f2600083836115df565b6001600360008473ffffffffffffffffffffffffffffffffffffffff1673ffffffffffffffffffffffffffffffffffffffff1681526020019081526020016000206000828254611342919061293b565b92505081905550816002600083815260200190815260200160002060006101000a81548173ffffffffffffffffffffffffffffffffffffffff021916908373ffffffffffffffffffffffffffffffffffffffff160217905550808273ffffffffffffffffffffffffffffffffffffffff16600073ffffffffffffffffffffffffffffffffffffffff167fddf252ad1be2c89b69c2b068fc378daa952ba7f163c4a11628f55a4df523b3ef60405160405180910390a4611403600083836115ef565b5050565b61141082611573565b61144f576040517f08c379a000000000000000000000000000000000000000000000000000000000815260040161144690612776565b60405180910390fd5b80600a60008481526020019081526020016000209080519060200190611476929190611ed5565b505050565b6001816000016000828254019250508190555050565b60007f80ac58cd000000000000000000000000000000000000000000000000000000007bffffffffffffffffffffffffffffffffffffffffffffffffffffffff1916827bffffffffffffffffffffffffffffffffffffffffffffffffffffffff1916148061155c57507f5b5e139f000000000000000000000000000000000000000000000000000000007bffffffffffffffffffffffffffffffffffffffffffffffffffffffff1916827bffffffffffffffffffffffffffffffffffffffffffffffffffffffff1916145b8061156c575061156b8261180a565b5b9050919050565b60008073ffffffffffffffffffffffffffffffffffffffff166002600084815260200190815260200160002060009054906101000a900473ffffffffffffffffffffffffffffffffffffffff1673ffffffffffffffffffffffffffffffffffffffff1614159050919050565b6115ea838383611874565b505050565b505050565b60006116158473ffffffffffffffffffffffffffffffffffffffff16611988565b1561177e578373ffffffffffffffffffffffffffffffffffffffff1663150b7a0261163e610b86565b8786866040518563ffffffff1660e01b8152600401611660949392919061260d565b602060405180830381600087803b15801561167a57600080fd5b505af19250505080156116ab57506040513d601f19601f820116820180604052508101906116a89190612281565b60015b61172e573d80600081146116db576040519150601f19603f3d011682016040523d82523d6000602084013e6116e0565b606091505b50600081511415611726576040517f08c379a000000000000000000000000000000000000000000000000000000000815260040161171d906126b6565b60405180910390fd5b805181602001fd5b63150b7a0260e01b7bffffffffffffffffffffffffffffffffffffffffffffffffffffffff1916817bffffffffffffffffffffffffffffffffffffffffffffffffffffffff191614915050611783565b600190505b949350505050565b606060405180602001604052806000815250905090565b60606117ad82610b3b565b60006117b761178b565b905060008151116117d75760405180602001604052806000815250611802565b806117e1846119ab565b6040516020016117f29291906125ce565b6040516020818303038152906040525b915050919050565b60007f01ffc9a7000000000000000000000000000000000000000000000000000000007bffffffffffffffffffffffffffffffffffffffffffffffffffffffff1916827bffffffffffffffffffffffffffffffffffffffffffffffffffffffff1916149050919050565b61187f838383611b58565b600073ffffffffffffffffffffffffffffffffffffffff168373ffffffffffffffffffffffffffffffffffffffff1614156118c2576118bd81611b5d565b611901565b8173ffffffffffffffffffffffffffffffffffffffff168373ffffffffffffffffffffffffffffffffffffffff1614611900576118ff8382611ba6565b5b5b600073ffffffffffffffffffffffffffffffffffffffff168273ffffffffffffffffffffffffffffffffffffffff1614156119445761193f81611d13565b611983565b8273ffffffffffffffffffffffffffffffffffffffff168273ffffffffffffffffffffffffffffffffffffffff1614611982576119818282611e56565b5b5b505050565b6000808273ffffffffffffffffffffffffffffffffffffffff163b119050919050565b606060008214156119f3576040518060400160405280600181526020017f30000000000000000000000000000000000000000000000000000000000000008152509050611b53565b600082905060005b60008214611a25578080611a0e90612b0f565b915050600a82611a1e9190612991565b91506119fb565b60008167ffffffffffffffff811115611a67577f4e487b7100000000000000000000000000000000000000000000000000000000600052604160045260246000fd5b6040519080825280601f01601f191660200182016040528015611a995781602001600182028036833780820191505090505b5090505b60008514611b4c57600182611ab291906129c2565b9150600a85611ac19190612b58565b6030611acd919061293b565b60f81b818381518110611b09577f4e487b7100000000000000000000000000000000000000000000000000000000600052603260045260246000fd5b60200101907effffffffffffffffffffffffffffffffffffffffffffffffffffffffffffff1916908160001a905350600a85611b459190612991565b9450611a9d565b8093505050505b919050565b505050565b6008805490506009600083815260200190815260200160002081905550600881908060018154018082558091505060019003906000526020600020016000909190919091505550565b60006001611bb384610823565b611bbd91906129c2565b9050600060076000848152602001908152602001600020549050818114611ca2576000600660008673ffffffffffffffffffffffffffffffffffffffff1673ffffffffffffffffffffffffffffffffffffffff168152602001908152602001600020600084815260200190815260200160002054905080600660008773ffffffffffffffffffffffffffffffffffffffff1673ffffffffffffffffffffffffffffffffffffffff168152602001908152602001600020600084815260200190815260200160002081905550816007600083815260200190815260200160002081905550505b6007600084815260200190815260200160002060009055600660008573ffffffffffffffffffffffffffffffffffffffff1673ffffffffffffffffffffffffffffffffffffffff16815260200190815260200160002060008381526020019081526020016000206000905550505050565b60006001600880549050611d2791906129c2565b9050600060096000848152602001908152602001600020549050600060088381548110611d7d577f4e487b7100000000000000000000000000000000000000000000000000000000600052603260045260246000fd5b906000526020600020015490508060088381548110611dc5577f4e487b7100000000000000000000000000000000000000000000000000000000600052603260045260246000fd5b906000526020600020018190555081600960008381526020019081526020016000208190555060096000858152602001908152602001600020600090556008805480611e3a577f4e487b7100000000000000000000000000000000000000000000000000000000600052603160045260246000fd5b6001900381819060005260206000200160009055905550505050565b6000611e6183610823565b905081600660008573ffffffffffffffffffffffffffffffffffffffff1673ffffffffffffffffffffffffffffffffffffffff168152602001908152602001600020600083815260200190815260200160002081905550806007600084815260200190815260200160002081905550505050565b828054611ee190612aac565b90600052602060002090601f016020900481019282611f035760008555611f4a565b82601f10611f1c57805160ff1916838001178555611f4a565b82800160010185558215611f4a579182015b82811115611f49578251825591602001919060010190611f2e565b5b509050611f579190611f5b565b5090565b5b80821115611f74576000816000905550600101611f5c565b5090565b6000611f8b611f8684612896565b612871565b905082815260208101848484011115611fa357600080fd5b611fae848285612a6a565b509392505050565b6000611fc9611fc4846128c7565b612871565b905082815260208101848484011115611fe157600080fd5b611fec848285612a6a565b509392505050565b60008135905061200381613010565b92915050565b60008135905061201881613027565b92915050565b60008135905061202d8161303e565b92915050565b6000815190506120428161303e565b92915050565b600082601f83011261205957600080fd5b8135612069848260208601611f78565b91505092915050565b600082601f83011261208357600080fd5b8135612093848260208601611fb6565b91505092915050565b6000813590506120ab81613055565b92915050565b6000602082840312156120c357600080fd5b60006120d184828501611ff4565b91505092915050565b600080604083850312156120ed57600080fd5b60006120fb85828601611ff4565b925050602061210c85828601611ff4565b9150509250929050565b60008060006060848603121561212b57600080fd5b600061213986828701611ff4565b935050602061214a86828701611ff4565b925050604061215b8682870161209c565b9150509250925092565b6000806000806080858703121561217b57600080fd5b600061218987828801611ff4565b945050602061219a87828801611ff4565b93505060406121ab8782880161209c565b925050606085013567ffffffffffffffff8111156121c857600080fd5b6121d487828801612048565b91505092959194509250565b600080604083850312156121f357600080fd5b600061220185828601611ff4565b925050602061221285828601612009565b9150509250929050565b6000806040838503121561222f57600080fd5b600061223d85828601611ff4565b925050602061224e8582860161209c565b9150509250929050565b60006020828403121561226a57600080fd5b60006122788482850161201e565b91505092915050565b60006020828403121561229357600080fd5b60006122a184828501612033565b91505092915050565b6000602082840312156122bc57600080fd5b600082013567ffffffffffffffff8111156122d657600080fd5b6122e284828501612072565b91505092915050565b6000602082840312156122fd57600080fd5b600061230b8482850161209c565b91505092915050565b61231d816129f6565b82525050565b61232c81612a08565b82525050565b600061233d826128f8565b612347818561290e565b9350612357818560208601612a79565b61236081612c45565b840191505092915050565b600061237682612903565b612380818561291f565b9350612390818560208601612a79565b61239981612c45565b840191505092915050565b60006123af82612903565b6123b98185612930565b93506123c9818560208601612a79565b80840191505092915050565b60006123e2602b8361291f565b91506123ed82612c56565b604082019050919050565b600061240560328361291f565b915061241082612ca5565b604082019050919050565b600061242860258361291f565b915061243382612cf4565b604082019050919050565b600061244b601c8361291f565b915061245682612d43565b602082019050919050565b600061246e60248361291f565b915061247982612d6c565b604082019050919050565b600061249160198361291f565b915061249c82612dbb565b602082019050919050565b60006124b460298361291f565b91506124bf82612de4565b604082019050919050565b60006124d7602e8361291f565b91506124e282612e33565b604082019050919050565b60006124fa603e8361291f565b915061250582612e82565b604082019050919050565b600061251d60208361291f565b915061252882612ed1565b602082019050919050565b600061254060188361291f565b915061254b82612efa565b602082019050919050565b600061256360218361291f565b915061256e82612f23565b604082019050919050565b6000612586602c8361291f565b915061259182612f72565b604082019050919050565b60006125a9602e8361291f565b91506125b482612fc1565b604082019050919050565b6125c881612a60565b82525050565b60006125da82856123a4565b91506125e682846123a4565b91508190509392505050565b60006020820190506126076000830184612314565b92915050565b60006080820190506126226000830187612314565b61262f6020830186612314565b61263c60408301856125bf565b818103606083015261264e8184612332565b905095945050505050565b600060208201905061266e6000830184612323565b92915050565b6000602082019050818103600083015261268e818461236b565b905092915050565b600060208201905081810360008301526126af816123d5565b9050919050565b600060208201905081810360008301526126cf816123f8565b9050919050565b600060208201905081810360008301526126ef8161241b565b9050919050565b6000602082019050818103600083015261270f8161243e565b9050919050565b6000602082019050818103600083015261272f81612461565b9050919050565b6000602082019050818103600083015261274f81612484565b9050919050565b6000602082019050818103600083015261276f816124a7565b9050919050565b6000602082019050818103600083015261278f816124ca565b9050919050565b600060208201905081810360008301526127af816124ed565b9050919050565b600060208201905081810360008301526127cf81612510565b9050919050565b600060208201905081810360008301526127ef81612533565b9050919050565b6000602082019050818103600083015261280f81612556565b9050919050565b6000602082019050818103600083015261282f81612579565b9050919050565b6000602082019050818103600083015261284f8161259c565b9050919050565b600060208201905061286b60008301846125bf565b92915050565b600061287b61288c565b90506128878282612ade565b919050565b6000604051905090565b600067ffffffffffffffff8211156128b1576128b0612c16565b5b6128ba82612c45565b9050602081019050919050565b600067ffffffffffffffff8211156128e2576128e1612c16565b5b6128eb82612c45565b9050602081019050919050565b600081519050919050565b600081519050919050565b600082825260208201905092915050565b600082825260208201905092915050565b600081905092915050565b600061294682612a60565b915061295183612a60565b9250827fffffffffffffffffffffffffffffffffffffffffffffffffffffffffffffffff0382111561298657612985612b89565b5b828201905092915050565b600061299c82612a60565b91506129a783612a60565b9250826129b7576129b6612bb8565b5b828204905092915050565b60006129cd82612a60565b91506129d883612a60565b9250828210156129eb576129ea612b89565b5b828203905092915050565b6000612a0182612a40565b9050919050565b60008115159050919050565b60007fffffffff0000000000000000000000000000000000000000000000000000000082169050919050565b600073ffffffffffffffffffffffffffffffffffffffff82169050919050565b6000819050919050565b82818337600083830152505050565b60005b83811015612a97578082015181840152602081019050612a7c565b83811115612aa6576000848401525b50505050565b60006002820490506001821680612ac457607f821691505b60208210811415612ad857612ad7612be7565b5b50919050565b612ae782612c45565b810181811067ffffffffffffffff82111715612b0657612b05612c16565b5b80604052505050565b6000612b1a82612a60565b91507fffffffffffffffffffffffffffffffffffffffffffffffffffffffffffffffff821415612b4d57612b4c612b89565b5b600182019050919050565b6000612b6382612a60565b9150612b6e83612a60565b925082612b7e57612b7d612bb8565b5b828206905092915050565b7f4e487b7100000000000000000000000000000000000000000000000000000000600052601160045260246000fd5b7f4e487b7100000000000000000000000000000000000000000000000000000000600052601260045260246000fd5b7f4e487b7100000000000000000000000000000000000000000000000000000000600052602260045260246000fd5b7f4e487b7100000000000000000000000000000000000000000000000000000000600052604160045260246000fd5b6000601f19601f8301169050919050565b7f455243373231456e756d657261626c653a206f776e657220696e646578206f7560008201527f74206f6620626f756e6473000000000000000000000000000000000000000000602082015250565b7f4552433732313a207472616e7366657220746f206e6f6e20455243373231526560008201527f63656976657220696d706c656d656e7465720000000000000000000000000000602082015250565b7f4552433732313a207472616e736665722066726f6d20696e636f72726563742060008201527f6f776e6572000000000000000000000000000000000000000000000000000000602082015250565b7f4552433732313a20746f6b656e20616c7265616479206d696e74656400000000600082015250565b7f4552433732313a207472616e7366657220746f20746865207a65726f2061646460008201527f7265737300000000000000000000000000000000000000000000000000000000602082015250565b7f4552433732313a20617070726f766520746f2063616c6c657200000000000000600082015250565b7f4552433732313a2061646472657373207a65726f206973206e6f74206120766160008201527f6c6964206f776e65720000000000000000000000000000000000000000000000602082015250565b7f45524337323155524953746f726167653a2055524920736574206f66206e6f6e60008201527f6578697374656e7420746f6b656e000000000000000000000000000000000000602082015250565b7f4552433732313a20617070726f76652063616c6c6572206973206e6f7420746f60008201527f6b656e206f776e6572206e6f7220617070726f76656420666f7220616c6c0000602082015250565b7f4552433732313a206d696e7420746f20746865207a65726f2061646472657373600082015250565b7f4552433732313a20696e76616c696420746f6b656e2049440000000000000000600082015250565b7f4552433732313a20617070726f76616c20746f2063757272656e74206f776e6560008201527f7200000000000000000000000000000000000000000000000000000000000000602082015250565b7f455243373231456e756d657261626c653a20676c6f62616c20696e646578206f60008201527f7574206f6620626f756e64730000000000000000000000000000000000000000602082015250565b7f4552433732313a2063616c6c6572206973206e6f7420746f6b656e206f776e6560008201527f72206e6f7220617070726f766564000000000000000000000000000000000000602082015250565b613019816129f6565b811461302457600080fd5b50565b61303081612a08565b811461303b57600080fd5b50565b61304781612a14565b811461305257600080fd5b50565b61305e81612a60565b811461306957600080fd5b5056fea2646970667358221220b71c075de6848a41799ed56b6930f05f431277dceccf063761995175153e7c7f64736f6c63430008040033",
  "linkReferences": {},
  "deployedLinkReferences": {}
}